:020000040800F2
:10000000103000202D0300083503000837030008D6
:10001000390300083B0300083D030008000000000E
:100020000000000000000000000000003F03000886
:1000300041030008000000004303000845030008D6
:100040004703000847030008470300084703000868
:100050004703000847030008470300084703000858
:100060004703000847030008470300084703000848
:100070004703000847030008470300084703000838
:100080004703000847030008470300084703000828
:100090004703000847030008470300084703000818
:1000A0004703000847030008470300084703000808
:1000B000AD5D000847030008470300084703000838
:1000C00047030008470300084703000847030008E8
:1000D00047030008470300084703000847030008D8
:1000E00047030008470300084703000847030008C8
:1000F00047030008470300084703000847030008B8
:1001000047030008470300084703000847030008A7
:1001100047030008032B00084703000847030008B3
:100120004703000847030008470300084703000887
:100130004703000847030008470300084703000877
:10014000470300084703000847030008755D0008DF
:100150004703000847030008470300084703000857
:100160004703000847030008470300084703000847
:100170004703000847030008470300084703000837
:1001800047030008DFF80CD006F024FD00480047C4
:100190004F27000810300020EFF30980704780F3EC
:1001A00009887047EFF30880704780F3088870472C
:1001B00040BA7047C0BA70474FF0010080F313880F
:1001C000014802490160FEE70CED00E00400FA0579
:1001D0004D4810B5016841F0010101604A4A002113
:1001E000083211600268494B1A400260031D484AF8
:1001F0001A60026822F48022026043480C300160D9
:1002000000F03BF843494FF00060086010BD70B546
:100210003D4D08352868404B404910F00C0004D093
:100220003F4E042803D0082803D00B601BE00E606B
:1002300019E0354A121D1068C0F38054106800F0B0
:100240003F0014B1B6FBF0F001E0B3FBF0F013682F
:100250001268C3F388135843C2F30142521C520080
:10026000B0FBF2F0086028682C4AC0F30310121D9E
:10027000105C0A68C2400A6070BD0CB500222249B9
:1002800000920192086840F4803008604FF4A06347
:10029000086800F4003001900098401C009001981C
:1002A00010B900989842F3D10868800329D501203D
:1002B00001901548083002680260026842F400426A
:1002C0000260026842F4A0520260021F154B1360E4
:1002D0000A6842F080720A600A689201FCD5124AEC
:1002E00040F203711160016821F0030101600168AF
:1002F00041F0020101600168C1F381010229FAD1D4
:100300000CBD01920CBD000000380240FFFFF6FE5C
:100310001030002408ED00E00024F400000000206C
:1003200040787D01193C4005003C0240064880476A
:1003300006480047FEE7FEE7FEE7FEE7FEE7FEE7CA
:10034000FEE7FEE7FEE7FEE7D101000885010008B1
:100350002849084328490860704730B50F23C27800
:1003600001780125FAB1244A126801F1E02102F472
:10037000E062C2F5E062C2F30722C2F10404D34096
:100380004278A24084781C401443220181F8002462
:10039000007800F01F018D404009800000F1E0204E
:1003A000C0F8005130BD01F01F00854048098000B1
:1003B00000F1E020C0F8805130BD104A11400143E7
:1003C0000D48001F016070470B4A121D002911687B
:1003D00001D0014300E08143116070474FF0E021FC
:1003E0000428086903D020F004000861704740F039
:1003F0000400FAE70000FA050CED00E080FFFF1FA3
:10040000DE4908707047DD490028086802D040F4D2
:10041000807001E020F4807008607047D7490028A0
:10042000086802D040F4007001E020F40070086019
:100430007047D2490028086802D040F4806001E08B
:1004400020F4806008607047CC48016841F4006186
:1004500001607047C948016841F4805101607047EC
:10046000C64810300068002805DAC448C449001D99
:100470000160C44901607047C0481030016841F014
:10048000004101607047BD4908200C310A68D20361
:1004900001D5012070470A68D20601D505207047B2
:1004A0000A6812F0EF0F01D006207047096889072B
:1004B000FBD50720704708B508208DF80000FFF72E
:1004C000E2FF8DF800009DF800000128F7D09DF8AC
:1004D000000008BD70B50646002529B1012928D0C5
:1004E000022929D04FF44075FFF7E5FF08281FD1F6
:1004F000A24C1034206820F440702060206828430B
:100500002060206820F0F8002060206846F002019A
:1005100008432060206840F480302060FFF7CBFF64
:10052000216821F002012160216821F0F801216099
:1005300070BD4FF48075D7E74FF40075D4E730B540
:1005400004460025FFF7B7FF2CB1012C1DD0022C6B
:100550001ED04FF44075082816D1884C10342068FE
:1005600020F440702060206828432060206840F01C
:1005700004002060206840F480302060FFF79BFF7B
:10058000216821F00401216030BD4FF48075E2E75D
:100590004FF40075DFE7F0B516461F460546FFF736
:1005A0008AFF082815D1754C1034206820F440705B
:1005B0002060206840F440702060206840F0010016
:1005C00020602E606F60FFF776FF216821F0010147
:1005D0002160F0BD70B50D460646FFF76CFF082898
:1005E00014D1664C1034206820F4407020602068DC
:1005F00040F400702060206840F001002060356009
:10060000FFF759FF216821F00101216070BD70B52D
:100610000D460646FFF74FFF082814D1574C1034FB
:10062000206820F440702060206840F480702060D2
:10063000206840F0010020603580FFF73CFF216812
:1006400021F00101216070BD70B50D460646FFF72F
:1006500032FF082812D1494C1034206820F4407031
:10066000206020682060206840F001002060357024
:10067000FFF721FF216821F00101216070BD3F4893
:1006800014300068C00705D03C483F49083001607D
:100690003E490160704739481430016841F001015A
:1006A0000160704730B50D460446FFF704FF082887
:1006B00007D13248163001880DB1A14300E0214333
:1006C000018030BD10B50446FFF7F5FE082802D1C1
:1006D0002A481530047010BD70B515460C46064604
:1006E000FFF7E9FE082808D124491431087800F002
:1006F0000F0004432C4334430C7070BD1F49143168
:100700000A7822F00C020A700A7802430A707047D5
:100710001A481430017841F002010170CBE6174805
:1007200014300068C0F34710704714481630008832
:1007300070471249002015310978AA2900D00120FC
:1007400070470E481430007800F00C0070470B4AD8
:1007500010320029116801D0014300E0814311608B
:1007600070470146054A00200C3212680A4200D048
:100770000120704701490C3108607047003C02407D
:1007800023016745AB89EFCD3B2A19087F6E5D4C8D
:10079000714910B5884206D10121084600F042FA9D
:1007A000002101204FE06D49884206D1012102203D
:1007B00000F038FA0021022045E06949884206D15C
:1007C0000121042000F02EFA002104203BE06549BD
:1007D000884206D10121082000F024FA00210820D7
:1007E00031E06149884206D10121102000F01AFA57
:1007F0000021102027E05D49884206D101212020F8
:1008000000F010FA002120201DE05949884206D14D
:100810000121402000F006FA0021402013E0554954
:10082000884206D10121802000F0FCF900218020BF
:1008300009E0514988420AD184150121204600F07F
:10084000F1F900212046BDE8104000F0EBB910BDE1
:10085000F0B5002201274FF0030C0B6807FA02F5F0
:100860002B40AB422CD1066853000CFA03F4A6438C
:1008700006600E79D0F800E09E4046EA0E0606605B
:100880000E79012E01D0022E12D18668A643866011
:100890004E79D0F808E09E4046EA0E06866046682B
:1008A000AE43466045688E799640B6B235434560A2
:1008B000C568A543C560CC799C40C3681C43C4602F
:1008C000521C102AC9D3F0BD4FF6FF710160002100
:1008D000017141718171C171704708B541F4803275
:1008E0000092C261C1610099C161C169C069009093
:1008F00008BD0246002012690A4200D0012070475C
:10090000006980B270470246002052690A4200D056
:1009100001207047406980B270470183704741836E
:1009200070470AB101837047418370474161704746
:1009300042694A40426170474B07DB0E9A40C90842
:1009400010B500EB8100016A0F249C40A1430162B5
:10095000016A1143016210BD000002400004024020
:1009600000080240000C0240001002400014024047
:1009700000180240001C024000200240EA480168C2
:1009800041F001010160E84A00210832116002686B
:10099000E64B1A400260031DE54A1A60026822F421
:1009A00080220260E0480C3001607047DE4900227E
:1009B000891C0A70087070470246002051090129FD
:1009C0000CD002290CD0D8497431096802F01F02FA
:1009D000012393400B4200D001207047D249F4E735
:1009E000D1497031F1E718B500204FF4A0640090B0
:1009F0003120FFF7E1FF0099491C0091A14201D08D
:100A00000028F5D03120FFF7D7FF002800D00120C3
:100A100018BDC54A116821F0F80141EAC000106014
:100A20007047C44908607047BF49002270310A709E
:100A30000A70012802D0042801D1052008707047EF
:100A4000BD490860704741EA82115A0810B5BB4B96
:100A5000029C03EB02421143014341EA0460B249A4
:100A6000091D086010BDB34908667047800140EA5F
:100A70000170AD49843108607047AE49886670479F
:100A8000AC49C8647047A84B08331A68084322F081
:100A9000EC62104318607047A34B08331A68084390
:100AA00022F078421043186070479F4A083211685C
:100AB00021F003010143116070479B480830006832
:100AC00000F00C007047984A0832116821F0F001DC
:100AD000014311607047944A0832116821F4E051D3
:100AE000014311607047904A0832116821F4604157
:100AF00041EAC0001060704770B58B4B083319682D
:100B00008F4C11F00C0104D08E4E042903D008291B
:100B100003D004601BE0066019E0834A121D1168CF
:100B2000C1F38055116801F03F0115B1B6FBF1F139
:100B300001E0B4FBF1F114681268C4F38814614356
:100B4000C2F30142521C5200B1FBF2F1016019687C
:100B50000F2202EA11117C4A545C0168E1404160B5
:100B60001C68072505EA9424145D21FA04F48460C6
:100B70001B6805EA5333D25CD140C16070BDC0F33D
:100B80000121032908D1684B083319686F4A21F401
:100B9000F81102400A431A60634970310A68C0F3D1
:100BA0000B0002430A60704763494439086070478C
:100BB00061494039086070475E49C1F85C0170477F
:100BC000594A30320029116801D0014300E08143C5
:100BD00011607047544A34320029116801D0014332
:100BE00000E08143116070474F4A38320029116894
:100BF00001D0014300E08143116070474A4A40320E
:100C00000029116801D0014300E081431160704761
:100C1000454A44320029116801D0014300E0814374
:100C200011607047404A10320029116801D0014319
:100C300000E08143116070473B4A1432002911687B
:100C400001D0014300E0814311607047364A1832F9
:100C50000029116801D0014300E081431160704711
:100C6000314A20320029116801D0014300E081435C
:100C7000116070472C4A24320029116801D00143C9
:100C800000E0814311607047274A50320029116803
:100C900001D0014300E0814311607047224A543281
:100CA0000029116801D0014300E0814311607047C1
:100CB0001D4A58320029116801D0014300E08143E8
:100CC00011607047184A60320029116801D0014351
:100CD00000E0814311607047134A643200291168B3
:100CE00001D0014300E08143116070470E4A0D328C
:100CF0000029117801D0014300E081431170704751
:100D000009487430016841F0807101607047014604
:100D1000054A00200C3212680A4200D001207047B8
:100D200001490E310870704700380240FFFFF6FE9F
:100D30001030002400004742800E47420000FFFFB1
:100D40000024F40040787D0114000020FFFCFF0F18
:100D500010B501210C072046FFF782FF2046BDE8B1
:100D600010400021FFF77CBF254908627047254AE3
:100D7000116821F0E00101431160704720490861CA
:100D800070471F49C1F8A00070471D49C1F8A40071
:100D900070471B49486270471A4B1A6822F00302D9
:100DA00002431A601848026842F0040202600129F6
:100DB00005D020BF016821F004010160704730BFF9
:100DC000F8E71048016841F004010160016841F052
:100DD000020101600C48016841F00401016030BF6C
:100DE0007047084A0146002052680A4200D001209C
:100DF000704704490A6842EA8000086070470000B2
:100E000000000E420070004010ED00E0A74910B550
:100E100088420AD1841401212046FFF72BFF204687
:100E2000BDE810400021FFF725BFA149884202D14B
:100E30000121041404E09F4988420AD10121C4130E
:100E40002046FFF70DFF2046BDE810400021FFF7C8
:100E500007BF10BD30B502884C8802F441530A88A0
:100E6000CD8822438C882C4322430C8922434C8911
:100E700022438C892243CC8922431A430280828BED
:100E800022F400628283098A018230BDF0B5022219
:100E90000023858B01244FF2400635408583028470
:100EA000858B8E68022E38D08A8802B10224824A4D
:100EB00013681B0203D5136823F4000313607E4AF2
:100EC0007C3213681268C3F388137B4EC2F302723C
:100ED000361F3668794F06F03F06B7FBF6F65E43DD
:100EE000B6FBF2F2CB88B3F5007F2BD06301B2FBE7
:100EF000F3F202EB82028B685200B2FBF3F2521D56
:100F000092B20A23B2FBF3F202F00103D21A4FF6B7
:100F1000FF74C2F34F0204EA0323941EFE2C01D394
:100F200002220023CC881A43144304840A884B8885
:100F30001A438B8889890B431A432A4342F4006180
:100F40008183F0BD120AD4E70021018041808180B5
:100F5000C180018141818181C18107210182704766
:100F60000021018041808180C180022282608181D4
:100F700070470029018802D041F0400101E021F0D2
:100F80004001018070470029818B02D041F48061CB
:100F900001E021F4806181837047028822F40062BD
:100FA000028002880A4302807047B1F5804F0188B1
:100FB00003D021F480410180704741F48041FAE779
:100FC000A1F57E420188FF3A02D041F4807101E030
:100FD00021F48071018070470029818802D041F09E
:100FE000040101E021F0040181807047002981881B
:100FF00002D041F0100101E021F010018180704722
:1010000080897047818170470029018802D041F4AE
:10101000005101E021F4005101807047018841F442
:10102000805101807047012901D0008B7047808A70
:101030007047008A7047002A828801D00A4300E086
:101040008A4382807047090901238B40002A8288E5
:1010500099B201D00A4300E08A4382807047024679
:10106000002012890A4200D001207047C943018143
:10107000704730B501F00F030125024605FA03F46D
:101080000020A3B2090905FA01F49188A4B21289DB
:1010900021401A4202D0002900D0012030BD01F0C9
:1010A0000F0201219140C943018170470030014086
:1010B00000380040003C00400838024040787D0184
:1010C000FE4910B5884206D101210846FFF7D2FD3E
:1010D000002101205BE0B0F1804F09D0F84988423F
:1010E0000DD101210220FFF7BBFD0021022070E09D
:1010F00001210846FFF7B4FD0021012069E0F14914
:10110000884206D101210420FFF7AAFD0021042016
:101110005FE0ED49884206D101210820FFF7A0FDDC
:101120000021082055E0E949884206D1012110201C
:10113000FFF796FD002110204BE0E549884206D1DB
:1011400001212020FFF78CFD0021202041E0E14912
:10115000884206D101210220FFF78CFD00210220E8
:1011600015E0DD49884202D101210C040AE0DB4987
:10117000884202D101214C0404E0D94988420AD1B5
:1011800001218C042046FFF775FD00212046BDE8B3
:101190001040FFF76FBDD349884206D1012140209E
:1011A000FFF75EFD0021402013E0CF49884206D1C1
:1011B00001218020FFF754FD0021802009E0CB4968
:1011C00088420AD1841501212046FFF749FD0021FC
:1011D0002046BDE81040FFF743BD10BD30B5028882
:1011E000B64CBC4DA0420DD0A8420BD0B0F1804F00
:1011F00008D0B34B984205D0B24B984202D0B24BC4
:10120000984203D122F070034A881A43AF4B9842A8
:1012100006D0AF4B984203D022F440730A891A4398
:1012200002804A68C2620A880285A04201D0A842B0
:1012300001D1897A01860121818230BD4FF0FF31D1
:1012400041600021018001814180817270470185E8
:1012500082827047028822F070020A43028070473F
:1012600041627047C1627047406A7047008D7047A5
:101270000029018802D041F0020101E021F00201C1
:10128000018070470029018802D041F0040101E08B
:1012900021F00401018070470029018802D041F04B
:1012A000800101E021F0800101807047028822F076
:1012B0000802028002880A4302807047028822F4F2
:1012C0004072028002880A43028070470029018828
:1012D00002D041F0010101E021F0010101807047DD
:1012E00030B5028C22F001020284028C8388048BC8
:1012F00022F0020224F073050C882C438D891543DB
:101300004A882A436D4DA84202D0724DA8420DD1A1
:1013100022F00805CA8923F440732A4322F0040509
:101320008A882A430D8A1D434B8A2B43838004837A
:1013300089684163028430BD70B5028C22F01002CE
:101340000284028C8388048B0D8824F4E6464FF6D1
:10135000FF7404EA052535438E8922F0200204EA51
:10136000061616434A8804EA02123243534EB0422C
:1013700002D0584EB04215D122F08006CA8923F41B
:10138000406304EA0212324322F040068A8804EAEB
:10139000021232430E8A04EA86061E434B8A04EA8E
:1013A000830333438380058389688163028470BD2E
:1013B00070B5028C22F480720284028C8388848B44
:1013C0000D8824F0730425438E894FF6FF7422F4B0
:1013D000007204EA062616434A8804EA02223243CF
:1013E000364EB04202D03B4EB04215D122F40066D8
:1013F000CA8923F4405304EA0222324322F480666D
:101400008A8804EA022232430E8A04EA06161E4340
:101410004B8A04EA03133343838085838968C1635D
:10142000028470BD70B5028C22F480520284058C57
:101430008288838B0C8823F4E6464FF6FF7303EA19
:101440000424344325F400568D8903EA05353543D9
:101450004E8803EA06362E43184DA84202D01D4D91
:10146000A84205D122F480450A8A03EA82122A435F
:101470008280848389680164068470BD00210180B4
:101480004180818081608181C18101824182704778
:1014900030B50124058C00F118038C40A543058468
:1014A00031B308292CD0091FC1F34E00184401683C
:1014B00048F6FF731940016001681AE0000001401E
:1014C0000004004000080040000C004000100040F4
:1014D000001400400004014000400140004401406D
:1014E0000048014000180040001C0040002000405F
:1014F00006E04FF6FF7303EA02221143016030BD9C
:1015000003EB510001684FF68F73194001600168C9
:10151000F3E74163704781637047C16370470164BB
:101520007047028B22F070020A4302837047028BDD
:101530004FF6FF7322F4E04203EA012111430183D5
:101540007047828B22F070020A4382837047828B3D
:101550004FF6FF7322F4E04203EA01211143818335
:101560007047028B22F008020A4302837047028B05
:101570004FF6FF7322F4006203EA01211143018355
:101580007047828B22F008020A4382837047828B65
:101590004FF6FF7322F4006203EA012111438183B5
:1015A0007047028B22F004020A4302837047028BC9
:1015B0004FF6FF7322F4806203EA01211143018395
:1015C0007047828B22F004020A4382837047828B29
:1015D0004FF6FF7322F4806203EA012111438183F5
:1015E0007047028B22F080020A4302837047028B0D
:1015F0004FF6FF73C2F30E0203EA01211143018388
:101600007047828B22F080020A4382837047828B6C
:101610004FF6FF73C2F30E0203EA012111438183E7
:101620007047028C22F002020A4302847047028C47
:1016300022F008020A4302847047028C4FF6FF73BF
:1016400022F0200203EA0111114301847047028C49
:101650004FF6FF7322F0800203EA01111143018467
:101660007047028C4FF6FF7322F4007203EA0121E7
:10167000114301847047028C4FF6FF7322F400621D
:1016800003EA0121114301847047028C4FF6FF7376
:1016900022F4005203EA013111430184704710B56E
:1016A0000123048C8B409C430484038C8A401343A5
:1016B000038410BD10B50423048C8B409C43048428
:1016C000038C8A401343038410BD828B22F4406252
:1016D0008283828B4FF6FF7303EA01210A438283E0
:1016E0007047828B22F00C028283828B0A438283B2
:1016F0007047028B22F440620283028B4FF6FF7325
:1017000003EA01210A4302837047F0B5048C24F0F8
:1017100010040484078B068C4FF6FF7404EA01154D
:1017200027F4734704EA0331394304EA02220A43E7
:1017300026F0A001294341F0100102830184F0BD8D
:10174000028B22F00C020283028B0A430283704751
:101750002DE9F0410C460E884988A2882389054668
:101760000EB3042E26D0082E2E8C4FF6FF7028D0F4
:1017700026F480562E84AF8B2E8C00EA022200EADB
:10178000013127F473473A4300EA0330104326F44B
:1017900020420A4342F48051A8832984E1882846E4
:1017A000BDE8F04191E700F062F9E1882846BDE824
:1017B000F041C5E7FFF7A9FFE1882846BDE8F04101
:1017C00097E726F480762E84AF8B2E8C00EA0121D9
:1017D00000EA0310104327F0F307384326F4206291
:1017E0000A4342F48071A8832984E1882846BDE831
:1017F000F04176E700210180418001228280C18092
:10180000018170472DE9F0410C46002649880746C2
:10181000012501B90226A288012A00D102252088CB
:1018200023890028384610D0FFF76FFFE18838463B
:10183000FFF75FFF23892A463146384600F017F943
:10184000E1883846BDE8F0417AE700F010F9E18818
:101850003846FFF775FF23892A4631463846FFF799
:1018600054FFE1883846BDE8F04142E7406B7047DD
:10187000806B7047C06B7047006C704710B50A886A
:101880004B88CC881A438B8823431A430B891A430D
:101890004B8989891A430A43A0F8442010BD0021CE
:1018A000018041808180C1800181418181817047B7
:1018B000002930F8441F02D041F4004101E0C1F397
:1018C0000E01018070470029818802D041F0040197
:1018D00001E021F00401818070470029818802D055
:1018E00041F0010101E021F0010181807047002AEF
:1018F000828901D00A4300E08A4382817047818255
:10190000704702460020128A0A4200D00120704728
:10191000C9430182704702460020138A92890B4214
:1019200002EA010202D0002A00D001207047C94318
:10193000018270471143A0F848107047002A82893D
:1019400001D00A4300E08A438281704700298188E0
:1019500002D041F0080101E021F0080181807047C8
:10196000018921F0070101817047028922F070028C
:101970000A430281704700B50346FFF7F6FF188956
:1019800040F00700188100BD70B516460D4660296D
:1019900004464FF0010231460AD000F068F82946AB
:1019A0002046FFF7E2FF208940F00700208170BD4C
:1019B000FFF7ABFEF3E730B504894FF6FF7505EA94
:1019C00003231343E4B20B432343038130BD10B51B
:1019D0000446FFF7F0FF208940F07700208110BD1A
:1019E00010B50446FFF7E7FF208940F480402081CE
:1019F00010BD828822F07002828082880A43828031
:101A00007047028922F00702028102890A4302819B
:101A10007047028922F08002028102890A43028112
:101A2000704770B50589048B068C25F007050D43BA
:101A30004FF6FC410C4040F201110C434FF6FF7190
:101A400001EA031126F02206114331430581048384
:101A5000018470BD0029818802D041F0800101E03D
:101A600021F0800181807047A0F85010704770B558
:101A7000048C24F001040484058B048C4FF6FF765B
:101A800006EA0313134325F0F3052B4324F00A025F
:101A90000A4342F001010383018470BDC74910B5B8
:101AA000884206D101211020FFF7E4F80021102020
:101AB00028E0C349884202D101214C0410E0C14909
:101AC000884202D101218C040AE0BF49884202D138
:101AD0000121CC0404E0BD4988420AD101210C0552
:101AE0002046FFF7BDF82046BDE810400021FFF773
:101AF000B7B8B749884209D101212020FFF7BAF8C9
:101B000000212020BDE81040FFF7B4B810BD7FB51C
:101B10000446008A0D46C98820F4405001432182C2
:101B2000A08941F20C618843A9882A8911436A89F6
:101B300002431143A181A08A20F44071A88908437F
:101B4000A0826846FEF7D8FF9C48844202D0A04895
:101B5000844201D1039800E00298A189090400EBB6
:101B6000C00101EB0010296801D5490000E089009F
:101B7000B0FBF1F06422B0FBF2F109010B096FF048
:101B800018056B4300EB8300A3891D044FF032035B
:101B900006D503EBC000B0FBF2F000F0070005E053
:101BA00003EB0010B0FBF2F000F00F0008432081BF
:101BB0007FBD4FF41651016000218180C1800181F9
:101BC0000C2242818181704710B5028A4C8822F430
:101BD00070630A8822438C88C9880C4322431A43C5
:101BE000028210BD0021018041808180C180704748
:101BF0000029818902D041F4005101E021F4005113
:101C000081817047028B02F47F420283028B0A4378
:101C1000028370470029818902D041F4004101E02C
:101C2000C1F30E01818170470029818A02D041F4FD
:101C3000006101E021F4006181827047C1F3080175
:101C4000818070478088C0F308007047028A22F0C4
:101C50000F020282028A0A430282704700298189A8
:101C600002D041F0020101E021F0020181817047C0
:101C7000828922F40062828182890A4382817047CC
:101C8000028A22F020020282028A0A4302827047FC
:101C90000029018A02D041F4804101E021F4804111
:101CA00001827047818941F00101818170470029DB
:101CB000818A02D041F0080101E021F0080181820F
:101CC0007047028BD2B20283028B42EA0121018368
:101CD00070470029818A02D041F0200101E021F003
:101CE0002001818270470029818A02D041F01001D1
:101CF00001E021F0100181827047828A22F0040203
:101D00008282828A0A43828270470029818A02D0B5
:101D100041F0020101E021F0020181827047002AB6
:101D2000828A01D00A4300E08A438282704710B55C
:101D3000C1F3421301F01F040121A140012B07D080
:101D4000022B07D01430002A026805D00A4304E0B1
:101D50000C30F8E71030F6E78A43026010BD024607
:101D6000002012880A4200D001207047C943018038
:101D7000704770B501F01F0501260024C1F342131E
:101D800006FA05F2012B0FD0022B0FD0838A4FEAFF
:101D900011210088134206FA01F600EA060001D07C
:101DA00000B10124204670BD8389F0E7038AEEE785
:101DB0000A0A01219140C943018070470010014087
:101DC0000044004000480040004C004000500040EB
:101DD0000014014018B50020FF4B0090CA20186085
:101DE00053201860FC491839086820F0A0000860EA
:101DF000CC130868009A00F02000521C0092A24206
:101E000001D00028F5D00868800601D5012000E047
:101E10000020FF21196018BD08B5EF4900201839CE
:101E200000900868400612D44FF0FF3008608B1312
:101E30000868009A00F04000521C00929A4201D0BB
:101E40000028F5D00868400601D4002008BD012014
:101E500008BD78B50025E04ECA2000952C463060BC
:101E600053203060FFF7D8FFA0B3DB48243805606B
:101E7000D94942F20110203908600B1D186800F0A2
:101E8000070018608C13191D0868009A00F0040000
:101E9000521C0092A24201D00028F5D008684007E9
:101EA0001CD518681D60CC4A4FF6FF70103A1060C0
:101EB000121FCA481060C8480C380560001D056034
:101EC000001D05600D60C4481C300560FFF782FFEF
:101ED00020B10124FF203060204678BD0024F9E7BE
:101EE000BD481838016821F080010160704770B565
:101EF000B94E04460025CA20306053203060FFF7F9
:101F00008BFFA8B1B4481C38016821F04001016082
:101F10000168226811430160AF48A168143801606C
:101F20000168A28841EA02410160FFF7D9FF01255B
:101F3000FF203060284670BD002101607F21416094
:101F4000FF2181607047A44908B1FF2002E0CA2048
:101F5000086053200860704770B59F4E0546002406
:101F6000CA20306053203060FFF756FF60B19A48B6
:101F70001C38016815B141F0100101E021F0100199
:101F80000160FFF7ADFF0124FF203060204670BDE7
:101F900070B50C460026924B010020781968324635
:101FA0004FEA416104D000292BDA00F054FB29E00C
:101FB000002900DBE27000F042FB0504607800F0CD
:101FC0003EFB45EA0025A07800F039FB0543E078A8
:101FD00045EA0045804CCA20206053202060FFF76E
:101FE0001BFF50B17F4805407D4808380560FFF76A
:101FF00077FFFFF7EFFE00B10126FF20206030469B
:1020000070BDE270A078217840EA01456078E178FF
:10201000000240EA01400543DCE70021C170017085
:10202000417081707047020010B56F480C4601681E
:102030006C4801EA0001C1F305402070C1F306239A
:10204000637001F07F03A3704FF0400303EA114176
:10205000E1700AD100F0FFFA2070607800F0FBFA1E
:102060006070A07800F0F7FAA07010BD70B50C4653
:102070000026010060780FD000F0EDFAA07800F0A3
:10208000EAFAA078E17840EA014560782178000218
:1020900040EA4130054315E0C10603D520F01000A9
:1020A0000A306070E07800F0CAFA0504607800F049
:1020B000C6FA45EA0025A07800F0C1FA0543207869
:1020C00045EA4035444CCA20206053202060FFF789
:1020D000A3FE50B1454805404148001F0560FFF789
:1020E000FFFEFFF777FE00B10126FF20206030469B
:1020F00070BD01210170817041700021C170704775
:10210000020010B53A480C460168384801EA00015F
:102110004FEA1140E070C1F30423637001F03F0304
:10212000A370C1F3423121700AD100F094FAE0703B
:10213000607800F090FA6070A07800F08CFAA070DF
:1021400010BD70B514460D46254A002100281068C0
:102150004FEA406005D000281CDA207800F07BFAB6
:1021600019E0002800DBE170207800F068FA06042E
:10217000607800F064FA46EA0026A07800F05FFA82
:102180000643E07846EA0046207B00F058FA46EA2B
:10219000006010E0E170207B00F05DFAA07821780B
:1021A000E27840EA01406178090241EA02410843CD
:1021B000217B40EA0160A168084361680843064941
:1021C000CA220A6053220A60B5F5807F12D00A1F26
:1021D0001060FF20086070BD24280040FF007F00D1
:1021E000082800407F7F7F00002800403FFFFF005D
:1021F00004280040F84AEBE70021C17001704170EB
:1022000081700122816002734160704710B51446ED
:102210000246B1F5807F2AD0EF48001D0168C1F366
:1022200005402070C1F30623637001F07F03A370A3
:10223000402303EA1143E370C1F30563237301F004
:10224000804301F08031C4E90113002A0ED100F06F
:1022500002FA2070607800F0FEF96070A07800F05B
:10226000FAF9A070207B00F0F6F9207310BDDA486F
:10227000D4E738B500220092D74CCA220834226035
:1022800053222260D44A143A0029116802D0014333
:10229000116012E081431160CF4A103A9513116822
:1022A000009B01EA10215B1C0093AB4201D0002986
:1022B000F5D0116811EA102000D00120FF21216023
:1022C00038BDC54ACA210832116053211160C24984
:1022D00014390B6823F007030B600B6803430B6092
:1022E000FF2010607047BC49CA2208310A6053229F
:1022F0000A60B94A083A1060FF2008607047B64883
:102300000838006880B2704718B500210091B24BC0
:10231000CA210833196053211960AF4914390028C4
:10232000086803D040F48060086014E020F4806006
:102330000860A94910398C130868009A00F004005D
:10234000521C0092A24201D00028F5D00868400734
:1023500001D4002000E00120FF21196018BD9E4B30
:10236000CA2210B508331A6053221A609A4A143AE6
:10237000146824F48024146014680843044314602F
:10238000FF20186010BD94481438006800F48020C5
:102390007047914BCA2210B508331A6053221A6055
:1023A0008D4A143A146824F4E00414601468084355
:1023B00004431460FF20186010BDF0B50646864D3A
:1023C0000024CA2008350F46286053202860FFF7F4
:1023D00023FD30B180483E43001F0660FFF780FDBB
:1023E0000124FF2028602046F0BD70B505467A4ED6
:1023F0000024CA200836306053203060FFF70CFDFF
:1024000060B175481438016815B141F0800101E0F0
:1024100021F080010160FFF763FD0124FF2030609F
:102420002046D8E66C4ACA21083211605321116057
:10243000694914390028086802D040F4000001E01E
:1024400020F400000860FF2010607047624B10B558
:10245000143B1A6840F60804A24342EA000209B19C
:1024600042F400625C48CA210830016053210160D7
:102470001A60FF21016010BD70B50D465649144623
:1024800014310968554A1140534A183212684FF600
:102490003F731A40C1F305432B70C1F306236B70E1
:1024A00001F07F03AB70402303EA1141E970002182
:1024B000E170C2F30421617002F03F01A170C2F328
:1024C00042312170002817D1287800F0C4F8287014
:1024D000687800F0C0F86870A87800F0BCF8A870C0
:1024E000607800F0B8F86070A07800F0B4F8A070E0
:1024F000207800F0B0F820706DE6374A24320029C9
:10250000116803D041EA40001060704721EA4000A2
:10251000FAE7314A24320029116801D0014300E072
:102520008143116070472C4A08B5343202EB8000B9
:102530000090016008BD284908B5343101EB8000E6
:102540000090006808BD244924310A6822F48032D2
:102550000A600A6802430A6070471F4924310A680A
:1025600022F400320A600A6802430A6070471A497E
:1025700024310A6822F480220A600A6802430A6051
:10258000704730B5144DCA2208352A6053222A609C
:10259000114C114B143C2433002920F00402216813
:1025A00000F0040004D0114321601968014303E0E6
:1025B00091432160196881431960FF20286030BD74
:1025C0000246054900201039096843F6777319401F
:1025D000114200D0012070471C2800407F7F7F00FF
:1025E00080B240F08000C1431F48026802F08002C0
:1025F00011430160EFE71C4A00213432126802F0F7
:102600000403194A121F126803EAD03302401A4326
:10261000154B1B6803EA101003D00004000C00D017
:1026200001210846D7E7C0F30F1040F08000C143F6
:102630000D48026802F0800211430160CBE70021DF
:1026400003E0491C0A38C9B2C0B20A28F9D2090706
:1026500040EA1160BFE7010901EB810100F00F00C2
:1026600000EB4100C0B2B6E70C280040F8B54EF2CE
:10267000A462811A01250446904210D00BDCA4F517
:1026800070509D381CD001281AD0A0F60620B0F555
:10269000204F5BD103E0012901D0022956D100214E
:1026A0000846FFF740FF754EA4F2A364B4F56044FA
:1026B0002AD0012C2DD0022C1CD0032C2ED11EE0B0
:1026C00000210846FFF72FFF6D480570A4F57050F4
:1026D0009D3808D0401E39D16AA000F08DF9BDE8C0
:1026E000F84000F08DBA6BA000F086F9BDE8F84024
:1026F00000F033BA6BA000F07FF909200DE06DA067
:1027000000F07AF9757009E06EA000F075F90A2002
:1027100003E070A000F070F90B207070714C3078FD
:1027200071490428714802D002F021FAF7E702F05B
:102730001EFA6D4803F0F8FC0028F0D06C4B6A4A92
:1027400001216A48009402F02EF8E8E7F8BD1FB5B1
:10275000002601960296039600F016F90020FFF776
:10276000EAFE644D1FFA80F94FF4005421462846D2
:10277000FEF7BFF84FF4004B98B959462846FEF7CC
:10278000B8F870B95CA000F037F94B4665A20A2191
:1027900001A804F051FA01A800F02EF93CA000F0C5
:1027A0002BF9A846354D614FA2464846FFF75EFF1C
:1027B000514644464046FEF79CF820B9594620460B
:1027C000FEF797F818B12878022838D040E058482A
:1027D000C0F8A4624449454802F0C9F9414C0EE0F2
:1027E0004149424802F0C3F93F4803F09DFC30B133
:1027F0003F4B3D4A01213D48009401F0D4FF287829
:102800000428EDD04B4800780128CED14AA14C488D
:1028100004F0A1F930B943F69D410020FFF783FE93
:10282000FDF7CAFC47A1464804F095F90028BCD141
:1028300043F69E41FFF777FEFDF7BEFCB5E76878EB
:1028400030B94EF2A3610020FFF76DFEFDF7B4FC36
:1028500038683E490840B0F1005F0BD178683C4CC5
:10286000206060603868FDF7A0FC6068804739A090
:1028700000F0C2F83AA000F0BFF896E78C00002004
:102880002C000020B4AEBFDAC9FDBCB6D7D6BFE27B
:102890000D0A0000B4AEBFDAC9FDBCB6CFB5CDB3EA
:1028A0000D0A000055C5CCC9FDBCB64C4F474F0DB5
:1028B0000A00000055C5CCC9FDBCB649434F0D0AFE
:1028C0000000000055C5CCC9FDBCB6CFB5CDB30DD9
:1028D0000A00000055C5CCC9FDBCB6D7D6BFE20D75
:1028E0000A00000098000020380D00208807002012
:1028F000500000200018024050617065726C6573D2
:1029000073207265636F726465722042494F532071
:1029100056302E322E332E32303136303532360D9F
:102920000A000000252E3258000000000080000838
:10293000000040422E0000202430372A0000000012
:10294000EC0100202454532A000000000000FE2F58
:1029500024000020415050206572726F720D0A00F1
:10296000415050206572726F722E2E2E0D0A00009B
:1029700010B500214FF00060FDF71FFDBDE81040CD
:102980004FF44070FDF7E4BC08B5FFF7F1FF4FF4DA
:10299000E13000F053F800F0F1F900F0A7F900F091
:1029A000D7F908480090084B084A0121084801F06F
:1029B000FAFE01210807FEF721F9BDE808400120D1
:1029C000FEF7D2B99800002050000020380D0020FA
:1029D0008807002070B5B54C054640212046FFF71A
:1029E000C5F929462046FFF729F940212046FFF77F
:1029F000B6F90128F9D170BD10B5044602E0641C97
:102A0000FFF7E8FF20780028F9D110BD30B585B078
:102A100004461422A6A1684604F079F86D4605EB39
:102A200014100078FFF7D6FF04F00F00285CFFF7C2
:102A3000D1FF2020FFF7CEFF05B030BD2DE9F043D8
:102A4000814687B001210C20FEF7BAF80121080564
:102A5000FEF7D4F89B4F08220C213846FDF76CFF97
:102A6000DFF86482082202214046FDF765FF022557
:102A70008DF80550B8148DF80450002400908DF89E
:102A8000064001268DF8076069463846FDF7E0FEEE
:102A90008DF805508DF8045004278DF806400097F6
:102AA0008DF8076069464046FDF7D2FEADF810404C
:102AB0000C207E4DADF80C40ADF81200CDF808901A
:102AC000ADF80E40ADF8144002A92846FFF71FF8F4
:102AD00035208DF818008DF819708DF81A408DF892
:102AE0001B6006A8FDF739FC012240F2255128465B
:102AF000FFF71DF901212846FFF77AF807B0BDE876
:102B0000F0832DE9F041694F40F225513846FFF737
:102B100030F9012812D16D4C0025012620780128BA
:102B200038460DD0FFF78EF8694A21795054491C78
:102B3000C8B22071042801D12571A670BDE8F081CA
:102B4000FFF780F8634AE1785054491CC8B2E0703E
:102B50008428F3D1E5706670F0E7002500F016FADE
:102B60005A4CAA4684F801A05BA0FFF745FFDFF8A6
:102B70006481DFF86891A34659469BF8010001285B
:102B8000FAD181F801A098F800004246AA2835D170
:102B90005778967800210846135C401C59408328DA
:102BA000FAD392F88300884228D1002411E008EB80
:102BB0000400B0F8030000F01BFA6D1C0A2D07D1C9
:102BC000D9F8A4020025494640B10020C1F8A4026A
:102BD000A41CB442EBD3012F02D00BE00120F5E797
:102BE0003DA0FFF709FF4CF2C0010120FFF79BFC5D
:102BF000FDF7E2FA38A0FFF7FFFEBDE738A0FAE7DD
:102C0000002634463546304600F09CF96D1C06F52A
:102C100080569C2DF7D32D4E0025A84675702EA00A
:102C2000FFF7EAFEDFF8ACA0DFF8B0B0B1464846E7
:102C300099F801100129FAD180F801809AF8001062
:102C40005046AA2930D14778867800221146435C45
:102C5000491C5A408329FAD390F88310914223D11A
:102C6000324629460AF1030000F04DF9641CA4B273
:102C700035440A2C07D1DBF8A4020024594628B1B8
:102C80000020C1F8A402012F02D009E00120F8E7DA
:102C900011A0FFF7B1FE13A0FFF7AEFEFDF78CFA0F
:102CA0000DA0FFF7A9FEC2E70DA0FAE70050004013
:102CB0003031323334353637383941424344454672
:102CC0000000000000080240000C02402C00002020
:102CD000EC010020EC00002041434B00000040428A
:102CE0004E414B004F4B0D0A000000002DE9FC4106
:102CF00001210520FDF764FF0125134F4FF40076F5
:102D00008DF80450002400968DF805406946384639
:102D1000FDF79EFD31463846FDF7FFFD8DF8045066
:102D20008DF805404FF4C070084C0090694620466D
:102D3000FDF78EFD80212046FDF7EFFDA115204611
:102D4000FDF7EBFDBDE8FC810000024000080240F9
:102D50001CB501215020FDF733FF00208DF8040041
:102D600001208DF807004FF420400090694602488A
:102D7000FDF76EFD1CBD000000180240F0B50121FA
:102D800087B00846FDF71CFF01210803FDF740FF4F
:102D90007C4F052211463846FDF7CEFD052206215F
:102DA0003846FDF7C9FD052207213846FDF7C4FD69
:102DB0001020012605908DF8186002258DF8195015
:102DC00005A93846FDF744FDE02005908DF8185020
:102DD00003208DF8190000248DF81A408DF81B404F
:102DE00005A93846FDF734FD10213846FDF795FD5D
:102DF000ADF800404FF48270ADF80200ADF8086005
:102E00002802ADF80C40ADF80440ADF80A00ADF86A
:102E10000E4007205C4CADF81000ADF80650694636
:102E20002046FEF717F801212046FEF7A2F807B06A
:102E3000F0BD70B5544C054602212046FEF70FF94F
:102E40000028F9D029462046FEF7DCF8012120466B
:102E5000FEF705F90028F9D02046FEF7D1F8C0B2F8
:102E600070BD70B5474C10212046FDF758FD052078
:102E7000FFF7DFFFAA20FFF7DCFF05461021204601
:102E8000FDF74BFD284670BD10B53E4C1021204685
:102E9000FDF745FD0620FFF7CCFF2046BDE81040BA
:102EA0001021FDF73ABD10B5FFF7DBFFC007FBD1DE
:102EB00010BD2DE9F04115460C460646FFF7E4FF2C
:102EC000304F10213846FDF72AFD0220FFF7B1FFF1
:102ED000C4F30740FFF7ADFFC4F30720FFF7A9FFD6
:102EE000E0B2FFF7A6FF002404E0305DFFF7A1FF8A
:102EF000641CA4B2AC42F8D310213846FDF70DFD96
:102F0000BDE8F041CFE72DE9F0410746C8B2C0F572
:102F100080740E461546A24200D814464FF48078BD
:102F2000224631463846FFF7C4FFA54208D0281B89
:102F30002744264485B24446A542F1D82C46EFE703
:102F4000BDE8F08170B50446FFF79EFFFFF7ABFFC9
:102F50000C4D10212846FDF7E2FC2020FFF769FF09
:102F6000C4F30740FFF765FFC4F30720FFF761FFD5
:102F7000E0B2FFF75EFF10212846FDF7CEFCBDE86A
:102F8000704090E7000002400030014010B5FDF7AE
:102F900067FA7120FDF7EEFB02211020FDF79AFA87
:102FA00002211820FDF796FA02212020FDF792FA5F
:102FB00002212820FDF78EFA02213020FDF78AFA3F
:102FC00002213820FDF786FA02214020FDF782FA1F
:102FD00002214820FDF77EFA02215020FDF77AFAFF
:102FE00002215820FDF776FABDE81040FDF744BAFB
:102FF00010B50446FDF734FA7120FDF7BBFB2146FE
:10300000054C2068FDF703FB2068801C2060BDE8AC
:103010001040FDF731BA00003400002010B501F077
:10302000F9FE002148B1B948B74A0260B84A426087
:103030004173B64A01203032D070B6480161B648BB
:10304000017010BD70B50446B44D012012B1012AC3
:1030500008D102E02B78EA7801E06B78AA78204664
:1030600001F036FBAB4A1169491C1161042900D9F2
:10307000042070BD70B50546012401F0CBFED8B127
:10308000A6480178284601F0D3FE0D2813D19F48A9
:10309000A34A2030016891420DD19C4A4168526890
:1030A000914209D1007B20B1012805D0022802D02D
:1030B00002E0002400E0022494483030C47320462B
:1030C00070BD2DE9F35F8946009801F0A3FE00284A
:1030D00068D08E4C02273034904A20798D4D0026DE
:1030E0004FF0080A4FF005084FF0010B092859D29C
:1030F000DFE800F058050F3973BBD2F0FD005378BC
:103100001F228249009801F0D9F884F805B0277190
:1031100085E05178009801F087FE012804D002284C
:1031200015D0042815D0BFE078482E616771017B67
:10313000806801F0800100287ED06860A068A860E7
:10314000E860802901D00420C0E00320BEE060795F
:10315000BCE085F800B0C7E06878401CC0B2687079
:103160000328F4D3CDE091461178009801F05CFE7D
:10317000012802D0617903291FD003202E616071DC
:10318000B9F8042068684F4682420DD23B78A9689E
:10319000009801F0A9F8B8886968091A6960A968F7
:1031A0000844A860BDE8FC9FD8B382B299F800300B
:1031B000A968009801F098F83CE0042809D0032899
:1031C000F0D16878401CC0B26870032870D22171B9
:1031D000E8E72E700720207144E09146517800986E
:1031E00001F022FE012804D0022828D0042835D07E
:1031F0005AE004202E616071B9F8062068684F46D5
:1032000082420FD27B78A968009801F057F8A8682D
:10321000E860F9880844A8606868401A68606E70C1
:10322000C0E709E040B182B299F80130A96800987E
:1032300001F044F86E60B5E784F80480B2E7D5E9A0
:10324000021099F80130B9F80620814200D0891A9D
:10325000009802B0BDE8F05F01F030B885F800B02A
:1032600084F804A084F805809CE7284984F8058048
:1032700020313F20A160A0810C200F463E54401E0B
:1032800010F0FF00FAD13E7013783F22009801F051
:103290002BF806202071C2E71178009801F0C4FDD8
:1032A000012806D004280FD003283FF455AF79E752
:1032B00027E02E6184F80580A078207049460098A8
:1032C000FFF7D8FEE0736DE72E700720207169E7E5
:1032D0000DE0FFE7002249460098FFF7B3FE70B902
:1032E000287802287FF433AF84F804A05AE701223B
:1032F00049460098FFF7A6FE00283FF428AF0428AF
:103300008ED1E7734EE7000055534243EC02002094
:1033100050403020380000204C0000202C030020BA
:10332000555342532DE9FC410C4691F84310064693
:10333000082903D194F84500502806D0D4F890000D
:10334000006C80470020BDE8FC8194F852007F4D5E
:10335000010604D5E870B4F85400A88003E0A87012
:10336000B4F85400E88094F85A00010604D5E870D7
:10337000B4F85C00A88003E0A870B4F85C00E880B2
:10338000A978304600F005FF6870E978304600F013
:1033900000FF2870E8880227CDE9007094F82130FA
:1033A00014F8202F6978304600F0B0FEA888CDE9E7
:1033B0000070637822782978304600F0A7FEC1E7D4
:1033C00070B5624C06460025617831B100F046FECA
:1033D0006178304600F0F7FE65702178002907D04B
:1033E000304600F03BFE2178304600F0ECFE2570C0
:1033F00070BD574900200870704755490A230128BD
:1034000002D002280CD07047524A1078401CC0B23B
:1034100010700A2804D2062008700120C870704776
:103420000B7070472DE9F05F0E468346012401F0D2
:10343000F1FC00287FD0464D0027DFF81091287856
:10344000DFF810814FF0080A0B2874D2DFE800F093
:1034500006730B424B56765E633672005846FFF792
:10346000DDFD022028E0A1223275FE227275F7826E
:1034700037830127354A5846314677833B46083221
:1034800000F0B9FE04004FF0030202D0032C11D06B
:1034900051E099F8080089F8480010B198F8011037
:1034A00009B12A7047E088F80170D6F89000006CE6
:1034B000804740E06A70092028703CE07379002260
:1034C0003146584601F004F9040034D189F84870B7
:1034D0006878F1E7584600F0D1F808B9042008E010
:1034E000FFF78BFF27E0584600F002F90028F7D1DC
:1034F0000520287088F8007000241CE0584600F071
:1035000041F90028ECD185F800A0F3E73146584690
:10351000FFF7D7FD0FE0D6F89000C06B804710F0A2
:10352000FF0002D0012803D005E085F800A002E0EA
:10353000062400E004242046BDE8F09F584600F031
:1035400068F90028CCD168782870D5E72C030020D2
:103550001C0300204C00002010B5444801F05AFC28
:10356000434918B1087820F001000870087810BDB0
:1035700008B1012070473E48007870472DE9F041BE
:103580001E4614460D4638B936B139480078C00792
:1035900004D00320BDE8F0810420FBE7334801F0AC
:1035A00039FCA0B176023346224629462F4800F066
:1035B000C2F907462F492D48FFF783FD2B4801F03C
:1035C00029FC10B1032FEED00FB10120E2E700205B
:1035D000E0E72DE9F0411E4614460D4630B92EB104
:1035E00023480178C90703D00320D3E70420D1E79B
:1035F0000078400701D50220CCE71C4801F00AFC06
:10360000A0B17602334622462946184800F04AF90E
:10361000074618491548FFF754FD144801F0FAFB16
:1036200010B1032FEED00FB10120B3E70020B1E7B6
:1036300078B90F4B01201B78DB0701D003207047BE
:1036400071B1012907D04FF40073022907D0032973
:1036500008D00420704708480068106000E013801C
:1036600000207047136070470020704788070020D3
:1036700060000020380D00207803002070B503247E
:1036800001F0C8FB10B3DE4D0123E878012802D019
:1036900002282BD11BE0DB49002206208A600A7336
:1036A0008873D948A8603F20A8810324AC700F20FC
:1036B0000E18401EF27310F0FF00F9D1CA732B717F
:1036C00007202870EC730220E87003240EE0E87BEA
:1036D00020B1012805D0022806D007E0EB700024B5
:1036E00004E0EB70012401E0EB700224204670BD81
:1036F00070B5032401F08EFB20B3C14D0123C348F4
:10370000E978012902D002293AD11CE0BD490822FA
:103710008A6080220A730A228A73A8600420A87033
:103720000F2000220C18401EE27310F0FF00F9D1A8
:103730002520C8732B71072028700320E87302200E
:10374000E87003241CE0E97B21B1012913D0022990
:1037500014D015E0AD49027810390024CA704278BF
:103760008A7082784A70C2780A7082794A72C07907
:103770000872EB7004E0EB70012401E0EB700224AE
:10378000204670BD70B5032401F044FB30B39C4D5E
:103790009E4E0022E8780123012802D0022836D16B
:1037A0001DE098493F2480208C6008730A208873AC
:1037B0000520AE60A8700F200E18401EF27310F0A6
:1037C000FF00F9D11A20C8734C74CC742B710720F8
:1037D00028700320E8730220E870032417E0E87BD8
:1037E00020B101280ED002280FD010E0B0780106D9
:1037F0008648A0F1100001D5037300E00273EB705E
:10380000002404E0EB70012401E0EB700224204668
:1038100070BD70B5032401F0FDFA38B3784D012373
:103820007A4AE878012802D0022839D11FE0754988
:103830003F2480208C6008730A208873AA60A878CF
:1038400068700620A8700F2000220E18401EF27328
:1038500010F0FF00F9D10320C8730A74CC742B71E7
:1038600007212970E8730220E870032418E0E87B40
:1038700020B101280FD0022810D011E06348117840
:1038800010380024C1715178817191784171D178DB
:103890000171EB7004E0EB70012401E0EB70022495
:1038A000204670BDF8B51E4615460F46032401F0AC
:1038B000B1FA78B3524B0122D878012802D00228FD
:1038C00037D128E04F4C00210A20A6602173A07355
:1038D0000F209F602718401EF97310F0FF00F9D1E8
:1038E0002A20E073280E6074280CA074280AE07463
:1038F0002575700AADF800009DF80100A0759DF8CF
:103900000000E0751A71072018700320D873022098
:10391000D87003240DE0D87B20B1012805D00228FF
:1039200005D006E0DA70002403E0DA7001E0DA7016
:1039300002242046F8BD2DE9FF4F354D81B04FF0F0
:10394000030985F8009098461446019801F062FA40
:10395000C0B32B4F01264FF0020BF8784FF0000A4E
:10396000012802D0022847D12DE026498020524666
:10397000C1F8088008730A2088730298B8600F2085
:103980000B18401EDA7310F0FF00F9D12820C8731D
:10399000200E4874200C8874200AC8740C754FEAF5
:1039A0005820ADF800009DF8010088759DF80000D2
:1039B000C8753E710720387087F80F9087F803B0FC
:1039C00085F8009018E0F87B38B9019801F022FAE8
:1039D00018B1FE7085F800A00EE0F87B012805D133
:1039E000019801F017FA08B1FE7005E0F87B022893
:1039F00002D1FE7085F800B0287805B0BDE8F08FE0
:103A00001C030020EC0200200C030020880300208F
:103A100061000020F8B50026044637460096FE4DAA
:103A2000032002F090F9E068006900907F1CAF422B
:103A300001D90020F8BD00980028F1DA0098002193
:103A400040F0010000900098E2681061E0680269AF
:103A50000092491CA94202D8009AD207F7D103204C
:103A600002F071F93046F8BD30B505460020EC781B
:103A7000002C0CD105EB8202DB1C9B08D2F8D02075
:103A800003E051F8045B1560641C9C42F9D330BD1F
:103A900010B504460023D21C9008D4F8D02003E0CF
:103AA000146841F8044B5B1C8342F9D3084610BDEF
:103AB00070B500220123C27040268370154614465B
:103AC0008680012901D061B114E0C3720821017020
:103AD00004214FF0A04241709115C1800221017272
:103AE00008E0C4720C21017006214170CB4A4FF4EA
:103AF000A061C18002F50061C0E9032100210AE054
:103B000002EB411303F5106600EB810403F530630B
:103B1000A661491C636543788B42F1D802F5806148
:103B200041614031C0F8CC10002108E002EB4113A4
:103B300000EB810403F5A063491CC4F890300378BE
:103B40008B42F3D8002108E002EB013300EB810443
:103B500003F58053491CC4F8D03003788B42F3D866
:103B600002F56062C0F80C21284670BD70B50446AD
:103B7000017A0025C068012915D0C16841F04001D3
:103B8000C1602046FFF746FF617A4FF4341009B157
:103B90004FF47410E1688863142002F0D7F8E078DD
:103BA000012819D020E0816B627A21F480310AB1BA
:103BB00041F480118163E068C16821F0401121F473
:103BC0002021C1602046FFF725FFE07801280BD1B6
:103BD000E1682A208860E2E7E068816821F01E0140
:103BE0000A3141F020018160284670BDC068002282
:103BF000816841F00101816010467047C068002271
:103C0000816821F0010181601046704738B50024B9
:103C1000034622460094009840F02000009000984F
:103C200061F38A1000900098D96808617A48D968D1
:103C30000B690093521C824202D8009B9B06F7D46A
:103C4000032002F080F8204638BD38B50024024633
:103C500021460094009840F0100000900098D3682E
:103C600018616D48D26813690093491C814202D8DB
:103C7000009BDB06F7D4032002F065F8204638BD30
:103C800010B5C3680024D868012920F0C04201D0D3
:103C900019B104E042F0005201E042F08042DA60E3
:103CA000322002F053F8204610BDC068406900F091
:103CB00001007047C068406910F0010F01D000207A
:103CC000704701207047C068406910F0010000D0C3
:103CD00001207047C0684169806908407047C0682A
:103CE0004068704710B5C268002421469461C368DB
:103CF000621E5A61C3685A60C3686FF080425A619D
:103D0000C368474A9A61C27802B91021C36841F07A
:103D100048729969914311439961C0684149826928
:103D20008A438261204610BDD0F8CC00006820F0A4
:103D30002E00704770B50C46054602F002F8284682
:103D4000FFF7F2FFC10408D4012C04D1D5F8CC1040
:103D500040F480500860C10405D524B9D5F8CC10D2
:103D600020F480500860BDE87040C82001F0EEBF2C
:103D700070B50546FFF7D8FF40F4807455F8CC0FB6
:103D80000460642001F0E2FF296824F48070086078
:103D9000142001F0DBFF012070BD4069026861F36F
:103DA0000102026070472DE9F041002704463D46BC
:103DB0003E4601F0C7FFD4F80C010660207A0128C6
:103DC0000FD001212046FFF7E8FF2046FFF7D0FF84
:103DD0006069016821F004010160E07A012802D0E5
:103DE00015E00021EEE7E06880214162304661F392
:103DF0000F00E268602161F31F409062E0223046CC
:103E000062F30F0061F31F40E168C1F80001102167
:103E10002046FFF7FBFE07E0400D030000000440D2
:103E200000080080080000202046FFF70EFF4FF03A
:103E3000FF3107E004EB850050F8902F9160006897
:103E4000C6606D1C2078A842F4D801212046FFF7F7
:103E500071FF2046FFF746FF3846BDE8F081406914
:103E6000806840F30000401C70474069406970471B
:103E7000F0B500EB81060027D6F890403D467B1E4A
:103E80002A46A360C378012B00D1042200EB411322
:103E900093F8B54334B1012C1FD0022C02D0032C6F
:103EA00027D10EE042F0890293F8B24342F48262D5
:103EB00084B993F8B44342F04002D4B142F02002F6
:103EC00017E093F8B2C342F0990242F4C062BCF129
:103ED000000F0ED042F480720BE093F8B2C342F0B0
:103EE000010242F40872BCF1000F02D042F08002DD
:103EF000F0E7D6F89040E26001228A4041698C697F
:103F000014438C61C068816941F00071816193F84C
:103F1000B00360F39C5593F8B10360F3CE2593F89A
:103F2000B20360F3CF3593F8B30302280CD025F425
:103F3000003093F8B513B3F8B62361F3934062F3FE
:103F40000A00032903D004E045F40030F1E740F013
:103F50000050D6F8901008603846F0BDF0B500EB80
:103F600041140026D4F8C03305464FF4807C374610
:103F70006BB1B4F8B6239818401EB0FBF2F080B2D3
:103F8000604505D912026046C4F8C02300E0012054
:103F900094F8B223AAB1B4F8B6234243C4F8C023BC
:103FA00062F3120760F3DC4794F8B80305EB810372
:103FB00060F35E77D3F890000761E878012803D0BA
:103FC00007E0D4F8C023EBE7D3F89020D4F8BC0383
:103FD000506153F8900F02682846FFF740FF60F3E6
:103FE0005D7222F080401A6840F000401060E8786E
:103FF00090BB94F8B20378BBD4F8C02362B394F8B2
:10400000B50330B1012810D0022802D0032819D1FD
:104010000BE0E868C36AD21CC2F38F029BB29342E2
:1040200010D2826942F020020BE068690069D21C5C
:10403000C2F38F0280B2904204D2E868826942F0F3
:1040400080628261B4F8C0030A4683B2D4F8BC032C
:1040500001462846FFF708FD3046F0BD30B500EBBD
:1040600081040023D4F89020116841F0804111F4BC
:10407000402F09D0C1F38145022D05D04069006968
:1040800010F47F0F03D005E0C068C06AF8E721F0A4
:104090000041116041F00040D4F8901008601846CB
:1040A00030BD10B500EB8100002350F8901F4FF099
:1040B0000042012464F3DC420A610068016821F0D7
:1040C000804141F000410160184610BD10B5044622
:1040D0000020616988616169401E486100210AE031
:1040E00004EB8100D0F89000026822F0802242F0B8
:1040F00080420260491C20788842F1D82046FFF7B0
:10410000A4FD2046BDE8104010217FE52DE9F041D7
:1041100000EB4105DDE9066795F8904504F07F0C5A
:1041200000EB411484F8B1C395F89055C5F3C01560
:1041300084F8B25384F8B02384F8B563A4F8B67356
:1041400084F8B333002284F8C82384F8C92313B950
:10415000012284F8B423FFF78BFE0020BDE8F08134
:1041600070B500EB4114059D0AB184F8B023B4F892
:10417000B623AA4202D00DB1A4F8B65394F8B323E3
:104180009A4202D00BB184F8B333FFF771FE0020DE
:1041900070BD30B5034600224FF6FF7403EB4205B5
:1041A000B5F890552D0404D5521CD2B2082AF5D387
:1041B0002246A24205D003EB420041F40041A0F8A0
:1041C0009015D0B230BD082907D200EB4100B0F8FD
:1041D0009015C1F30E01A0F8901500207047022140
:1041E000002200EB4103491CC9B2A3F8902508291D
:1041F000F7D30020704730B50120CC780546012C5C
:104200000BD0022C08D10A7F0D2A10D00B2A12D015
:104210000C2A01D1CD70032030BD0C784C700824DD
:104220000C708A608B810D770222CA7030BDCD7010
:104230000020087730BDCD70022030BD10B50B4690
:1042400000EB4211002481F8B243032481F8B84303
:10425000C1F8BC330823C1F8C033114600F0F3FDA8
:10426000C0B210BD70B500EB4314002584F8B25302
:10427000C4E9EF121AB194F8C91359B102E001214F
:1042800084F8C913022184F8B813194600F0DBFD45
:10429000002070BD84F8B853F7E770B50C4600EB0A
:1042A0004311012581F8B253022581F8B853C1E9C1
:1042B000EF42194600F0C7FD002070BD70B500EB5D
:1042C0004314002584F8B253C4E9EF1294F8C913DB
:1042D00039B1022184F8B813194600F0B4FD00206A
:1042E00070BD84F8B853F7E770B50C4600EB431186
:1042F000012581F8B253C1E9EF4291F8C82302B118
:10430000022281F8B823194600F09DFD002070BDFF
:1043100070B50C4600EB4311012581F8B253C1E999
:10432000EF4291F8C8235AB1022481F8B84382F0D1
:10433000010281F8C823194600F085FD002070BDF8
:104340000024F2E770B50D4600EB4314002184F819
:10435000B213C4E9EF5294F8C82302B1022184F8E1
:10436000B81382F0010184F8C813194600F06BFD00
:10437000002070BD70B50C4600EB4311012581F89B
:10438000B253C1E9EF42002281F8B823194600F088
:104390005AFD002070BD70B500EB4314002584F871
:1043A000B253C4E9EF1284F8B853194600F04BFD3C
:1043B000002070BD30B442F08002DDE902540A757D
:1043C00006224A750322CB82B2EB132F02D140F2B0
:1043D000094200E000220A834C8323462A4630BC6F
:1043E000FFF709BF7CB51646044600F58870CDE995
:1043F00000060D464FF4807300222046FFF7DAFFD7
:1044000000283CD194F8101105F8221F94F81111DE
:10441000697094F8121194F81321082E01EB02210F
:10442000698094F81411297194F81511697194F840
:104430001611A97194F81711E97120D994F818117F
:1044400094F8192101EB0221298194F81A1194F8AA
:104450001B2101EB0221698194F81C1194F81D21A4
:1044600001EB0221A98194F81E11A97394F81F1180
:10447000E97394F82011297494F8211169747CBDB2
:104480000A8803781A440A800178084470472DE9A5
:10449000FF4F85B0074618781299387058787870B1
:1044A00092469878DA781C4600EB022078801879DA
:1044B00038715A797A719A79BA71DA79FA71227AFD
:1044C0003A7209296FD90921ADF80C1002286ED86B
:1044D000DFF850825DE003A92046FFF7D1FF0446D4
:1044E0004078042855D194F90260069806EBC6017D
:1044F00001EB000BE07803284BD22146684600F020
:10450000FEF89DF80400002503283ED94FE003A9DA
:104510002046FFF7B5FF04464078052835D106EB65
:1045200046010AEBC10000EBC50998F80000B04253
:1045300002D088F8006007E02079617900EB012162
:10454000B8F80200814224D36946584600F0D7F8F3
:10455000217889F80010617889F80110A17889F82C
:104560000210E17889F80310217962796D1C01EB62
:104570000221A9F80410A17989F80610207961793F
:104580006DB200EB0120A8F802009DF80400A842DB
:10459000BDDC7888BDF80C1088429CD80020A8F8B3
:1045A000020088F80000002009B0BDE8F08F032069
:1045B000FAE72DE9FC47154600F58879CDE9009525
:1045C000002407460E464FF400732246FFF7F2FE22
:1045D0005FEA000807D015E0391991F8101101556C
:1045E000641CA4B200E05048AC42F5D34B4606F13F
:1045F000500206F13E0106F134000095FFF747FF37
:1046000000B180464046BDE8FC877CB500F5887562
:10461000069E1C46CDE9005642F440730022FFF787
:10462000C9FE002814D16978032911D129788A1E7E
:10463000B24200DC16460021B2B2AD1C04E06B5C55
:10464000891C04F8013B89B29142F8D30021217002
:104650007CBD30B400230B7505244C75CA820B83D6
:104660004B8330BC1A46FFF7C6BD30B400230B7530
:1046700009244C75CA820B834B8330BC1A46FFF762
:10468000BABD30B401240C750B244C75CB820A835F
:1046900000224A8330BC1346FFF7ADBD30B400247E
:1046A0000C7503254D75CA820B834C832346224625
:1046B00030BCFFF7A0BD30B400240C7501254D754A
:1046C000CA820B834C832346224630BCFFF793BD3E
:1046D00030B402240C7501244C750024CC820A836A
:1046E00015064C8300EB431202D582F8C84301E063
:1046F00082F8C943002330BC1A46FFF77CBD0A7814
:1047000002704A7842708A788270CA78C2700A79D8
:1047100002714A7942718A798271CA79C271097AC1
:104720000172704762000020880500200121C0F856
:104730001013002070470121C0F8141300207047A7
:104740000021C0F814130846704770B504460021D4
:1047500001F0F7FAE06800258561E168681E4861AC
:104760002046FFF74BFAC4F81053002070BD00201C
:10477000704770B50C46002121706170A170012254
:104780000546E27022774020A07184F8201084F85A
:10479000212021792846FFF716FD61792846FFF789
:1047A00012FD002070BD2DE9F0411D4614460F4654
:1047B0008046069E01F088FA002001F0C3FA2146E7
:1047C0004046FFF7D6FFE4E923563946404600F05D
:1047D000EBFA6068006880474046BDE8F04101F0B0
:1047E000B8BA2DE9F05F002680468E740C46087F2B
:1047F0000B2509270121DFF8A8954FF0050A4FF096
:104800000C0B0C2817D2DFE800F0CE060E3941570A
:104810006479819BACC1627904F114014046FFF7D1
:104820000DFD0220ABE06179404600F0FDFA012861
:1048300002D003281ED0B6E0207D618B00F08000FE
:1048400051B141F28832A9F80020802802D084F8C2
:104850001CA008E0032005E03222A9F800208028EF
:1048600006D007202077404600F0DAFA20829AE04E
:104870002777F8E7257784F812A094E02379A289B6
:104880004046A168FFF709FD042078E02179404601
:1048900000F0CAFA01280DD0042827D0032873D0CD
:1048A000404600F0BDFA218A411AB9F80000814261
:1048B0006AD878E02777F3E7627908EB421080F84E
:1048C000C9136379A2894046A168FFF7CBFC062093
:1048D00055E06179404600F0A7FA012804D0042889
:1048E00004D0022807D044E0072048E06078207018
:1048F00084F81CB057E084F81CA054E0002223790F
:1049000011464046FFF7C9FC082038E021794046AF
:1049100000F08AFA074601282ED0032F34D04046F3
:1049200000F07EFA218A411AB9F8000081422BD8A2
:10493000042F38D16078207084F81CB0032632E050
:104940006179002208EB411090F8C91381F0010150
:1049500080F8C913637911464046FFF783FC0A20AB
:104960000DE06179404600F05FFA012804D002288A
:1049700008D0032808D016E0607820700D2020773A
:1049800011E001E027770EE025770CE0A07B401CCA
:10499000C0B2A073022801D8217704E00820A074D7
:1049A0006078207002263046BDE8F09F70B50C2577
:1049B000044605290AD0042908D006290BD1257000
:1049C000D0F890000068BDE870400047D4F890002F
:1049D000406C8047257070BD2DE9F0410C46804643
:1049E000012589780026FF2092B02F460A2952D24D
:1049F000DFE801F0051F2E525F71849BAEB80822DC
:104A000021464046FFF7EEFC002844D194F82900E7
:104A1000A071A770CDE90060002361791A46404675
:104A2000FFF79EFBA0790023CDE9006021791A46AB
:104A30002EE0122221464046FFF7D4FC00282AD15E
:104A4000D4F89000C16904F122008847022087E071
:104A5000012221464046FFF7FCFD00281BD1022021
:104A600001F074F984F82070D4F89000A41C006A56
:104A700080470320207000960196A27FA178002332
:104A80004046FFF76DFB00960196A27FE178002378
:104A90004046FFF765FB66E0092221464046FFF7E6
:104AA00088FD00285FD1E08EB0F5806F5BD80420D0
:104AB00056E0E28E21464046FFF77BFDA0BBD4F8CE
:104AC000900004F1500204F13E01436A04F1340005
:104AD0009847052044E094F83020062652B1009013
:104AE00002AB21464046FFF790FDE8B9D4F89000AC
:104AF000816A11E0D4F89000816A12E094F83120C4
:104B000007265AB1009002AB21464046FFF77DFDD3
:104B100050B9D4F89000C16A02A803E0D4F890001C
:104B2000C16AA0A08847A6701DE094F8322008262C
:104B300052B1009002AB21464046FFF766FD90B9A6
:104B4000D4F89000016BE7E7D4F89000016BE8E738
:104B500094F8392021464046FFF787FD18B909200F
:104B6000A07000E0002512B02846BDE8F0812DE9D4
:104B7000FC4102260C4680468DF8006000F04AF9A0
:104B800018B1404600F049F928B9207818B1032837
:104B900001D0032020702078002504F120070D2883
:104BA0005CD2DFE800F0071B25AC5B5D7A8D96696F
:104BB0005B5B9B00404600F02DF900284ED00120A1
:104BC0002070642001F0C2F8404600F01EF9D4F8CD
:104BD0009000C06802B0BDE8F0410047D8F8140367
:104BE00001283BD12670BDE8FC41322001F0AEB86F
:104BF000D4F890008068804700214046FFF7C9FA4A
:104C0000607180214046FFF7C4FA2071404600F0F1
:104C1000FCF8002822D1D4F89000A41CC06880477A
:104C2000404600F0ECF8C0B2E077052104F8021C21
:104C3000D4F88E10896988472079CDE90050E37F48
:104C4000A27FA1784046FFF761FA2079CDE90050B4
:104C5000E37FA27FE1784046FFF758FABDE8FC8188
:104C600021464046FFF7B8FE0028F7D1D4F890005F
:104C7000406B804709200EE0D4F89000806B80479D
:104C80000128EBD1D4F88C002146026840469047B9
:104C90000028E3D106202070E0E7D4F88C002146FC
:104CA0008268404690478DF800009DF8000008B9E2
:104CB0000720F0E79DF800102046BDE8FC4175E6AE
:104CC000D4F88C002146C268404690478DF8000019
:104CD000F0E721464046BDE8FC4182E521464046DA
:104CE000FFF747FDD4F890008C3440688047206877
:104CF0003946426802B04046BDE8F0411047D4F85A
:104D000090000069804721464046FFF732FDD4F805
:104D1000900040688047D4F88C003946426840468D
:104D200090474046FFF75BFA25704046BDE8FC41DE
:104D3000012100F039B870B50446D0F80C010168C3
:104D400021F001010160D4F80C01016821F0030198
:104D500001602046FEF7E8FF20F0800040F04005AB
:104D600054F8CC0F0560142000F0F0FF216825F006
:104D70004000086070BD10B50446FEF7D5FF54F83A
:104D8000CC1F40F080000860206C016841F00101F8
:104D90000160206C016841F00301016010BD00005A
:104DA000800000204E2F410010B50022044613461B
:104DB000C0F8102304EB8200C0F81833C0F8543355
:104DC000A01880F89033521CD2B20F2AF2D30820D8
:104DD000A4F8B6032046FEF76BFE2046FEF70EFF52
:104DE0002046FEF7C3FE01212046FEF749FF20467C
:104DF000FEF7D9FF2046FEF7F9FE002010BDD0F8DF
:104E0000CC000068C0F34140704710B5FEF7B0FF1A
:104E1000002010BDD0F810037047D0F8140370477D
:104E20004069806880B27047084490F89F037047DB
:104E300000EB8100D0F854037047084490F89003C9
:104E40007047FFF715B80022431883F89F2300EB43
:104E50004113C3F8C423FFF781B800000CB5014625
:104E6000D1F8900000680090009820F0004000F118
:104E700000400090009820F0804000F180400090B9
:104E8000009AD1F89000026000200190019820F46F
:104E9000001000F5001001900198CA6850610120CF
:104EA0000CBD38B5044600200090FE4800688168BB
:104EB00020468847009820F0005000F100500090F4
:104EC0000098E1684861012038BD7FB5044600259F
:104ED00000200090019003900290D4F8CC0000686C
:104EE0000390D4F8CC0000680290029820F00400EF
:104EF0000290029820F002000290029820F0080030
:104F00000290029820F0200002900398C0F3400025
:104F100058B1029820F00200801C0290E14800681D
:104F200041682046884745F001050398C0F3C0005A
:104F3000002853D0029820F008000830029003980F
:104F4000C0F38000002844D00398C0F341400228F9
:104F500004D00398C0F34140012825D1606900685E
:104F600001900398C0F3414002281DD141F27071B5
:104F700060694160019800F00300022814D0207A93
:104F8000022804D102212046FEF707FF0CE04BF671
:104F9000803160694160019800F00300012803D06E
:104FA00001212046FEF7F9FEBE480068C168204690
:104FB000884700200090009820F0005000F1005039
:104FC0000090E0688069009988430843E16888613F
:104FD00004E0B44800680169204688470398C0F39C
:104FE000401030B1029820F020002030029045F0AF
:104FF00001050299D4F8CC000160284604B070BDC8
:105000007FB505460C4605F1900050F82460B06865
:105010000390F0680290DDE902100840039005F16A
:10502000900050F82400006801900398C0F38000BD
:10503000D0B100200090009820F00400001D0090E6
:105040000098B06005F1900050F82400C06800900E
:10505000009820F00200801C009005F1900050F8AC
:1050600024000099C160A8E10398C0F3401048B142
:1050700000200090009820F0200020300090009840
:10508000B0609AE10398C0F34020F8B105F19000B8
:1050900050F82400C0680090009820F00200801CA6
:1050A000009005F1900050F824000099C160E1B231
:1050B0002846FEF7D3FF00200090009820F40070EF
:1050C00000F5007000900098B06076E1039800F061
:1050D000010038B3002105F5467040F8241005F1B1
:1050E000900050F82400C0680090009820F0020062
:1050F000801C009005F1900050F824000099C160D8
:10510000E1B22846FEF7AAFF00200090009820F0A8
:105110000100401C00900098B060012105F564700A
:1051200001554AE10398C0F3C00010B3002000907D
:10513000009820F00800083000900098B06005F159
:10514000900050F82400C0680090009820F0020001
:10515000801C009005F1900050F824000099C16077
:10516000E1B22846FEF77AFF052105F56470015586
:1051700023E10398C0F3001048B3002105F5467001
:1051800040F8241005F1900050F82400C068009009
:10519000009820F00200801C009005F1900050F86B
:1051A00024000099C160E87818B9E1B22846FEF7FA
:1051B00055FF00200090009820F010001030009063
:1051C0000098B060032105F564700155F5E003987F
:1051D000C0F3C01010B305F1900050F82400C0686F
:1051E0000090009820F00200801C009005F19000D3
:1051F00050F824000099C160E1B22846FEF72EFF66
:10520000062105F56470015500200090009820F0FB
:105210008000803000900098B060CEE00398C0F32A
:10522000801048B3002105F5467040F8241005F1C0
:10523000900050F82400C0680090009820F0020010
:10524000801C009005F1900050F824000099C16086
:10525000E87818B9E1B22846FEF700FF0020009078
:10526000009820F04000403000900098B060042189
:1052700005F564700155A0E00398C0F3802078B371
:1052800005F1900050F82400C0680090009820F0CC
:105290000200801C009005F1900050F82400009955
:1052A000C16001E07C000020E1B22846FEF7D6FE96
:1052B00000200090009820F010001030009000981E
:1052C000B060082105F56470015500200090009839
:1052D00020F4806000F5806000900098B0606CE081
:1052E000FFE70398C0F34000002866D005F1900066
:1052F00050F82400C0680090009820F00200009050
:1053000005F1900050F824000099C16005F5647023
:10531000005D012815D1012105F29F30015501984A
:10532000C0F3814002283ED105F56C7000EB4410BB
:10533000407E80F0010105F56C7000EB4410417671
:1053400031E005F56470005D032804D1022105F207
:105350009F30015527E005F56470005D04280FD1EA
:1053600005F56C7000EB44100079012803D1E1B21F
:105370002846FEF796FE022105F29F30015512E005
:1053800005F56470005D052804D1042105F29F3005
:10539000015508E005F56470005D062803D103217E
:1053A00005F29F30015500200090009820F0020087
:1053B000801C00900098B06000BF012004B070BD58
:1053C00070B586B005460C4605F1900050F8246093
:1053D000B0680590F0680490DDE90410084005907D
:1053E00005F1900050F8240000680390002004901C
:1053F0000598C0F38000D0B100200190019820F002
:105400000400001D01900198B06005F1900050F873
:105410002400C0680190019820F00200801C0190D7
:1054200005F1900050F824000199C16073E00598DF
:10543000C0F3401048B100200190019820F02000F6
:10544000203001900198B06065E00598C0F3C0007D
:1054500078B305F1900050F82400C06801900198DD
:1054600020F00200801C019005F1900050F824000B
:105470000199C160052105F5647001550020019076
:10548000019820F01000103001900198B0600020C9
:105490000190019820F00800083001900198B06058
:1054A000059820F010000590E1B22846FEF7D6FDE1
:1054B00031E0FFE70598C0F3802060B305F190006C
:1054C00050F82400C0680190019820F00200801C70
:1054D000019005F1900050F824000199C160E1B2FB
:1054E0002846FEF7BBFD00200190019820F0100037
:1054F000103001900198B060082105F564700155E5
:1055000000200190019820F4806000F580600190F7
:105510000198B06000BF0598C0F34020F8B105F1D4
:10552000900050F82400C0680190019820F002001B
:10553000801C019005F1900050F824000199C16091
:10554000E1B22846FEF78AFD00200190019820F480
:10555000007000F5007001900198B0603CE1059882
:1055600000F00100002871D0E878012812D105F17F
:10557000900050F824000069029005F56C7000EB73
:10558000441000690299C1F31201411A05F55570E2
:1055900040F82410012105F5647001550021783888
:1055A00040F8241000200190019820F00100401CD8
:1055B00001900198B0600398C0F3814020B1039836
:1055C000C0F3814002282AD105F1900050F8240050
:1055D000C0680190019820F00200801C019005F144
:1055E000900050F824000199C160E1B22846FEF70E
:1055F00035FD00200190019820F01000103001903E
:105600000198B06005F56C7000EB4410007E80F0EE
:10561000010105F56C7000EB44100176DCE00398A5
:10562000C0F38140032899D1039820F0005000F185
:105630000050039005F1900050F824000399016098
:10564000012105F29F300155C6E0FFE70598C0F340
:105650004000002851D005F1900050F82400C068A7
:105660000190019820F00200019005F1900050F89F
:1056700024000199C16005F56470005D012804D122
:10568000012105F29F3001552DE005F56470005DA4
:10569000052804D1042105F29F30015523E005F5CA
:1056A0006470005D062804D005F56470005D08286C
:1056B00008D1002105F5467040F8241003218730F9
:1056C000015510E00398C0F3814003280BD105F584
:1056D0006C7000EB4410007E80F0010105F56C70E9
:1056E00000EB4410017600200190019820F00200A8
:1056F000801C01900198B0606EE00598C0F3C01066
:1057000010B305F1900050F82400C0680190019892
:1057100020F00200801C019005F1900050F8240058
:105720000199C160062105F564700155E1B2284672
:10573000FEF794FC00200190019820F0800080305A
:1057400001900198B06047E00598C0F30010E0B305
:105750000398C0F38140032816D105F1900050F85A
:105760002400C0680190019820F00200801C019084
:1057700005F1900050F824000199C160E87818B94B
:10578000E1B22846FEF76AFC032105F56470015575
:1057900000200190019820F0100010300190019835
:1057A000B0600398C0F3814020B10398C0F38140FA
:1057B000022811D1039820F0004000F1004003902E
:1057C000039820F08040039000E005E005F1900090
:1057D00050F8240003990160012006B070BD7CB52B
:1057E0000546002400262846FEF73FFB019000BF37
:1057F0001BE0019880B20121A1400840A0B105F151
:10580000900050F82400006800900098C0F3C03069
:1058100028B121462846FFF7D3FD064304E0214680
:105820002846FFF7EDFB0643641C2878A042E0D829
:1058300030467CBDFEB50446606900690090019861
:10584000C0F3C30104F56C7000EB41100069C01C8B
:10585000C0F38F0674E04FF6FF71009801EA8005EF
:105860000198C0F3C30104F56C7000EB41100069AE
:10587000A84216D20198C0F3C30104F56C7000EB86
:105880004110008A85B200200290029820F08060CA
:1058900000F180600290E068806902998843E168C5
:1058A00088610198C0F3C30104F56C7000EB4110EE
:1058B0000069C01CC0F38F060198C0F3C302C0F397
:1058C000C30304F56C7000EB43102B46C1682046FF
:1058D000FEF7CAF80198C0F3C30104F56C7000EB41
:1058E0004110C06841190198C0F3C30204F56C70FF
:1058F00000EB4210C1600198C0F3C30104F56C7065
:1059000000EB41100069411B0198C0F3C30204F58C
:105910006C7000EB421001610198C0F3C30104F503
:105920006C7000EB4110406941190198C0F3C3024B
:1059300004F56C7000EB42104161606900690090F1
:10594000009880B2B0420ADD0198C0F3C30104F5AB
:105950006C7000EB4110006900287FF47CAF0120DF
:10596000FEBD7FB50446E068C06A00900198C0F3B0
:10597000C30104F56C7000EB41100069C01CC0F35A
:105980008F0673E04FF6FF71009801EA80050198D9
:10599000C0F3C30104F56C7000EB41100069A8422C
:1059A00015D20198C0F3C30104F56C7000EB4110EF
:1059B000008A85B200200390039820F02000203058
:1059C0000390E068806903998843E16888610198E1
:1059D000C0F3C30104F56C7000EB41100069C01CFA
:1059E000C0F38F060198C0F3C302C0F3C30304F5EC
:1059F0006C7000EB43102B46C1682046FEF734F86C
:105A00000198C0F3C30104F56C7000EB4110C0684D
:105A100041190198C0F3C30204F56C7000EB421009
:105A2000C1600198C0F3C30104F56C7000EB411034
:105A30000069411B0198C0F3C30204F56C7000EBD0
:105A4000421001610198C0F3C30104F56C7000EBD2
:105A50004110406941190198C0F3C30204F56C700C
:105A600000EB42104161E068C06A0090009880B28B
:105A7000B0420ADD0198C0F3C30104F56C7000EB7D
:105A80004110006900287FF47DAF012004B070BD93
:105A900030B585B00446002000900390039820F0B4
:105AA000100010300390E068806903998843E16832
:105AB0008861E068006A0490049800F00F0000908C
:105AC00004F190009DF8001050F82100006801904A
:105AD0000498C0F34340022806D0032878D0052854
